{
  "contractName": "Ballot_Open",
  "abi": [
    {
      "inputs": [
        {
          "internalType": "string",
          "name": "_officialBallotName",
          "type": "string"
        },
        {
          "internalType": "string",
          "name": "_proposal",
          "type": "string"
        },
        {
          "internalType": "string",
          "name": "_metainfo",
          "type": "string"
        },
        {
          "internalType": "uint256",
          "name": "_votingDays",
          "type": "uint256"
        }
      ],
      "stateMutability": "nonpayable",
      "type": "constructor"
    },
    {
      "inputs": [],
      "name": "countPro",
      "outputs": [
        {
          "internalType": "uint256",
          "name": "",
          "type": "uint256"
        }
      ],
      "stateMutability": "view",
      "type": "function"
    },
    {
      "inputs": [],
      "name": "metainfo",
      "outputs": [
        {
          "internalType": "string",
          "name": "",
          "type": "string"
        }
      ],
      "stateMutability": "view",
      "type": "function"
    },
    {
      "inputs": [],
      "name": "officialBallotAddress",
      "outputs": [
        {
          "internalType": "address",
          "name": "",
          "type": "address"
        }
      ],
      "stateMutability": "view",
      "type": "function"
    },
    {
      "inputs": [],
      "name": "officialBallotName",
      "outputs": [
        {
          "internalType": "string",
          "name": "",
          "type": "string"
        }
      ],
      "stateMutability": "view",
      "type": "function"
    },
    {
      "inputs": [],
      "name": "proposal",
      "outputs": [
        {
          "internalType": "string",
          "name": "",
          "type": "string"
        }
      ],
      "stateMutability": "view",
      "type": "function"
    },
    {
      "inputs": [],
      "name": "timeEnd",
      "outputs": [
        {
          "internalType": "uint256",
          "name": "",
          "type": "uint256"
        }
      ],
      "stateMutability": "view",
      "type": "function"
    },
    {
      "inputs": [],
      "name": "timeStart",
      "outputs": [
        {
          "internalType": "uint256",
          "name": "",
          "type": "uint256"
        }
      ],
      "stateMutability": "view",
      "type": "function"
    },
    {
      "inputs": [],
      "name": "totalVotes",
      "outputs": [
        {
          "internalType": "uint256",
          "name": "",
          "type": "uint256"
        }
      ],
      "stateMutability": "view",
      "type": "function"
    },
    {
      "inputs": [
        {
          "internalType": "bool",
          "name": "_choice",
          "type": "bool"
        }
      ],
      "name": "addVote",
      "outputs": [],
      "stateMutability": "nonpayable",
      "type": "function"
    },
    {
      "inputs": [],
      "name": "reduceEndTime",
      "outputs": [],
      "stateMutability": "nonpayable",
      "type": "function"
    }
  ],
  "bytecode": "0x6080604052600060075560006008553480156200001b57600080fd5b5060405162000ef138038062000ef183398181016040528101906200004191906200038c565b33600160006101000a81548173ffffffffffffffffffffffffffffffffffffffff021916908373ffffffffffffffffffffffffffffffffffffffff16021790555083600290805190602001906200009a92919062000104565b508260039080519060200190620000b392919062000104565b508160049080519060200190620000cc92919062000104565b50426005819055506201518081620000e591906200048a565b600554620000f49190620004eb565b60068190555050505050620005ad565b828054620001129062000577565b90600052602060002090601f01602090048101928262000136576000855562000182565b82601f106200015157805160ff191683800117855562000182565b8280016001018555821562000182579182015b828111156200018157825182559160200191906001019062000164565b5b50905062000191919062000195565b5090565b5b80821115620001b057600081600090555060010162000196565b5090565b6000604051905090565b600080fd5b600080fd5b600080fd5b600080fd5b6000601f19601f8301169050919050565b7f4e487b7100000000000000000000000000000000000000000000000000000000600052604160045260246000fd5b6200021d82620001d2565b810181811067ffffffffffffffff821117156200023f576200023e620001e3565b5b80604052505050565b600062000254620001b4565b905062000262828262000212565b919050565b600067ffffffffffffffff821115620002855762000284620001e3565b5b6200029082620001d2565b9050602081019050919050565b60005b83811015620002bd578082015181840152602081019050620002a0565b83811115620002cd576000848401525b50505050565b6000620002ea620002e48462000267565b62000248565b905082815260208101848484011115620003095762000308620001cd565b5b620003168482856200029d565b509392505050565b600082601f830112620003365762000335620001c8565b5b815162000348848260208601620002d3565b91505092915050565b6000819050919050565b620003668162000351565b81146200037257600080fd5b50565b60008151905062000386816200035b565b92915050565b60008060008060808587031215620003a957620003a8620001be565b5b600085015167ffffffffffffffff811115620003ca57620003c9620001c3565b5b620003d8878288016200031e565b945050602085015167ffffffffffffffff811115620003fc57620003fb620001c3565b5b6200040a878288016200031e565b935050604085015167ffffffffffffffff8111156200042e576200042d620001c3565b5b6200043c878288016200031e565b92505060606200044f8782880162000375565b91505092959194509250565b7f4e487b7100000000000000000000000000000000000000000000000000000000600052601160045260246000fd5b6000620004978262000351565b9150620004a48362000351565b9250817fffffffffffffffffffffffffffffffffffffffffffffffffffffffffffffffff0483118215151615620004e057620004df6200045b565b5b828202905092915050565b6000620004f88262000351565b9150620005058362000351565b9250827fffffffffffffffffffffffffffffffffffffffffffffffffffffffffffffffff038211156200053d576200053c6200045b565b5b828201905092915050565b7f4e487b7100000000000000000000000000000000000000000000000000000000600052602260045260246000fd5b600060028204905060018216806200059057607f821691505b60208210811415620005a757620005a662000548565b5b50919050565b61093480620005bd6000396000f3fe608060405234801561001057600080fd5b506004361061009e5760003560e01c8063753ec10311610066578063753ec10314610123578063ce3c249114610141578063ec0276f61461015f578063fd74d2941461017d578063fda263e81461019b5761009e565b8063063b9620146100a35780630d15fd77146100c1578063118078c3146100df578063408b2d2b146100fd578063422356ee14610107575b600080fd5b6100ab6101b9565b6040516100b891906106c8565b60405180910390f35b6100c9610247565b6040516100d69190610703565b60405180910390f35b6100e761024d565b6040516100f49190610703565b60405180910390f35b610105610253565b005b610121600480360381019061011c919061075b565b6102cb565b005b61012b6104af565b60405161013891906106c8565b60405180910390f35b61014961053d565b60405161015691906107c9565b60405180910390f35b610167610563565b60405161017491906106c8565b60405180910390f35b6101856105f1565b6040516101929190610703565b60405180910390f35b6101a36105f7565b6040516101b09190610703565b60405180910390f35b600480546101c690610813565b80601f01602080910402602001604051908101604052809291908181526020018280546101f290610813565b801561023f5780601f106102145761010080835404028352916020019161023f565b820191906000526020600020905b81548152906001019060200180831161022257829003601f168201915b505050505081565b60085481565b60075481565b600160009054906101000a900473ffffffffffffffffffffffffffffffffffffffff1673ffffffffffffffffffffffffffffffffffffffff163373ffffffffffffffffffffffffffffffffffffffff16146102ad57600080fd5b62278d00600660008282546102c29190610874565b92505081905550565b4260065481106102da57600080fd5b33600073ffffffffffffffffffffffffffffffffffffffff166000803373ffffffffffffffffffffffffffffffffffffffff1673ffffffffffffffffffffffffffffffffffffffff16815260200190815260200160002060000160009054906101000a900473ffffffffffffffffffffffffffffffffffffffff1673ffffffffffffffffffffffffffffffffffffffff161461037557600080fd5b61037d6105fd565b33816000019073ffffffffffffffffffffffffffffffffffffffff16908173ffffffffffffffffffffffffffffffffffffffff168152505083816020019015159081151581525050806000803373ffffffffffffffffffffffffffffffffffffffff1673ffffffffffffffffffffffffffffffffffffffff16815260200190815260200160002060008201518160000160006101000a81548173ffffffffffffffffffffffffffffffffffffffff021916908373ffffffffffffffffffffffffffffffffffffffff16021790555060208201518160000160146101000a81548160ff021916908315150217905550905050831561048f5760016007600082825461048791906108a8565b925050819055505b6001600860008282546104a291906108a8565b9250508190555050505050565b600380546104bc90610813565b80601f01602080910402602001604051908101604052809291908181526020018280546104e890610813565b80156105355780601f1061050a57610100808354040283529160200191610535565b820191906000526020600020905b81548152906001019060200180831161051857829003601f168201915b505050505081565b600160009054906101000a900473ffffffffffffffffffffffffffffffffffffffff1681565b6002805461057090610813565b80601f016020809104026020016040519081016040528092919081815260200182805461059c90610813565b80156105e95780601f106105be576101008083540402835291602001916105e9565b820191906000526020600020905b8154815290600101906020018083116105cc57829003601f168201915b505050505081565b60055481565b60065481565b6040518060400160405280600073ffffffffffffffffffffffffffffffffffffffff1681526020016000151581525090565b600081519050919050565b600082825260208201905092915050565b60005b8381101561066957808201518184015260208101905061064e565b83811115610678576000848401525b50505050565b6000601f19601f8301169050919050565b600061069a8261062f565b6106a4818561063a565b93506106b481856020860161064b565b6106bd8161067e565b840191505092915050565b600060208201905081810360008301526106e2818461068f565b905092915050565b6000819050919050565b6106fd816106ea565b82525050565b600060208201905061071860008301846106f4565b92915050565b600080fd5b60008115159050919050565b61073881610723565b811461074357600080fd5b50565b6000813590506107558161072f565b92915050565b6000602082840312156107715761077061071e565b5b600061077f84828501610746565b91505092915050565b600073ffffffffffffffffffffffffffffffffffffffff82169050919050565b60006107b382610788565b9050919050565b6107c3816107a8565b82525050565b60006020820190506107de60008301846107ba565b92915050565b7f4e487b7100000000000000000000000000000000000000000000000000000000600052602260045260246000fd5b6000600282049050600182168061082b57607f821691505b6020821081141561083f5761083e6107e4565b5b50919050565b7f4e487b7100000000000000000000000000000000000000000000000000000000600052601160045260246000fd5b600061087f826106ea565b915061088a836106ea565b92508282101561089d5761089c610845565b5b828203905092915050565b60006108b3826106ea565b91506108be836106ea565b9250827fffffffffffffffffffffffffffffffffffffffffffffffffffffffffffffffff038211156108f3576108f2610845565b5b82820190509291505056fea2646970667358221220e677d0509220a09be1c5ad85bca075da738cedbe63f5e87dc4b2ff08bdc82a7164736f6c634300080b0033",
  "immutableReferences": {},
  "source": "// SPDX-License-Identifier: MIT\npragma solidity >=0.4.22 <0.9.0;\n\n\n/** @title Ballot_Open\n *  @notice Contract for voting on the chain. Use-Case for public polls.\n */\ncontract Ballot_Open{\n\n    struct vote{\n        address voterAddress;\n        bool choice;\n    }\n\n    mapping(address => vote) private votes;\n\n    address public officialBallotAddress;\n    string public officialBallotName;\n    string public proposal;\n    string public metainfo;\n    uint public timeStart;\n    uint public timeEnd;\n\n    uint public countPro = 0;\n    uint public totalVotes = 0;\n\n    /// @param _condition Any condition accepted; Development purposes only\n    modifier condition(bool _condition){\n        require(_condition);\n        _;\n    }\n\n    /// @dev Requirement for official Address\n    modifier onlyOfficial(){\n        require(msg.sender == officialBallotAddress);\n        _;\n    }\n\n    /// @param _voter address running interaction\n    /// @notice Checks if address has not voted.\n    modifier hasNotVoted(address _voter){\n        require(votes[msg.sender].voterAddress == address(0));\n        _;\n    }\n\n    /// @param _blockTime current Time\n    /// @notice checks if the voting time has run out\n    modifier validVotingTime(uint _blockTime){\n        require(_blockTime < timeEnd);\n        _;\n    }\n\n    /// @notice Constructor for Contract\n    constructor(string memory _officialBallotName, string memory _proposal, string memory _metainfo, uint _votingDays){\n        officialBallotAddress = msg.sender;\n        officialBallotName = _officialBallotName;\n        proposal = _proposal;\n        metainfo = _metainfo;\n        timeStart = block.timestamp;\n        timeEnd = timeStart + (_votingDays * 1 days);\n    }\n\n    /// @notice Adds vote to pool\n    function addVote(bool _choice) public validVotingTime(block.timestamp) hasNotVoted(msg.sender){\n        vote memory v;\n        v.voterAddress = msg.sender;\n        v.choice = _choice;\n        votes[msg.sender] = v;\n\n        if(_choice){ countPro += 1; }\n        totalVotes += 1;\n    }\n\n    /// @notice Reduces Votingtime. For development purposes\n    function reduceEndTime() public onlyOfficial{\n        timeEnd -= (30 * 1 days);\n    }\n\n}",
  "sourcePath": "/home/thompson/Projects/Solidity/DeVoS/web3/contracts/Ballot_Open.sol",
  "compiler": {
    "name": "solc",
    "version": "0.8.11+commit.d7f03943.Emscripten.clang"
  },
  "schemaVersion": "3.4.5",
  "updatedAt": "2022-03-01T16:36:56.495Z",
  "devdoc": {
    "kind": "dev",
    "methods": {},
    "title": "Ballot_Open",
    "version": 1
  },
  "userdoc": {
    "kind": "user",
    "methods": {
      "addVote(bool)": {
        "notice": "Adds vote to pool"
      },
      "constructor": {
        "notice": "Constructor for Contract"
      },
      "reduceEndTime()": {
        "notice": "Reduces Votingtime. For development purposes"
      }
    },
    "notice": "Contract for voting on the chain. Use-Case for public polls.",
    "version": 1
  }
}