{
  "contractName": "Ballot_Authorized",
  "abi": [
    {
      "inputs": [
        {
          "internalType": "string",
          "name": "_officialBallotName",
          "type": "string"
        },
        {
          "internalType": "string",
          "name": "_proposal",
          "type": "string"
        },
        {
          "internalType": "string",
          "name": "_metainfo",
          "type": "string"
        }
      ],
      "stateMutability": "nonpayable",
      "type": "constructor"
    },
    {
      "inputs": [],
      "name": "finalResult",
      "outputs": [
        {
          "internalType": "uint256",
          "name": "",
          "type": "uint256"
        }
      ],
      "stateMutability": "view",
      "type": "function"
    },
    {
      "inputs": [],
      "name": "metainfo",
      "outputs": [
        {
          "internalType": "string",
          "name": "",
          "type": "string"
        }
      ],
      "stateMutability": "view",
      "type": "function"
    },
    {
      "inputs": [],
      "name": "officialBallotAddress",
      "outputs": [
        {
          "internalType": "address",
          "name": "",
          "type": "address"
        }
      ],
      "stateMutability": "view",
      "type": "function"
    },
    {
      "inputs": [],
      "name": "officialBallotName",
      "outputs": [
        {
          "internalType": "string",
          "name": "",
          "type": "string"
        }
      ],
      "stateMutability": "view",
      "type": "function"
    },
    {
      "inputs": [],
      "name": "proposal",
      "outputs": [
        {
          "internalType": "string",
          "name": "",
          "type": "string"
        }
      ],
      "stateMutability": "view",
      "type": "function"
    },
    {
      "inputs": [],
      "name": "state",
      "outputs": [
        {
          "internalType": "enum Ballot_Authorized.State",
          "name": "",
          "type": "uint8"
        }
      ],
      "stateMutability": "view",
      "type": "function"
    },
    {
      "inputs": [],
      "name": "totalVoter",
      "outputs": [
        {
          "internalType": "uint256",
          "name": "",
          "type": "uint256"
        }
      ],
      "stateMutability": "view",
      "type": "function"
    },
    {
      "inputs": [],
      "name": "totalVotes",
      "outputs": [
        {
          "internalType": "uint256",
          "name": "",
          "type": "uint256"
        }
      ],
      "stateMutability": "view",
      "type": "function"
    },
    {
      "inputs": [
        {
          "internalType": "address",
          "name": "",
          "type": "address"
        }
      ],
      "name": "voterRegistry",
      "outputs": [
        {
          "internalType": "string",
          "name": "voterName",
          "type": "string"
        },
        {
          "internalType": "bool",
          "name": "voted",
          "type": "bool"
        }
      ],
      "stateMutability": "view",
      "type": "function"
    },
    {
      "inputs": [
        {
          "internalType": "address",
          "name": "_voterAddress",
          "type": "address"
        },
        {
          "internalType": "string",
          "name": "_voterName",
          "type": "string"
        }
      ],
      "name": "addVoter",
      "outputs": [],
      "stateMutability": "nonpayable",
      "type": "function"
    },
    {
      "inputs": [],
      "name": "startVote",
      "outputs": [],
      "stateMutability": "nonpayable",
      "type": "function"
    },
    {
      "inputs": [
        {
          "internalType": "bool",
          "name": "_choice",
          "type": "bool"
        }
      ],
      "name": "doVote",
      "outputs": [
        {
          "internalType": "bool",
          "name": "voted",
          "type": "bool"
        }
      ],
      "stateMutability": "nonpayable",
      "type": "function"
    },
    {
      "inputs": [],
      "name": "endVote",
      "outputs": [],
      "stateMutability": "nonpayable",
      "type": "function"
    }
  ],
  "bytecode": "0x608060405260006004556000600555600060065560006007553480156200002557600080fd5b50604051620015bc380380620015bc83398181016040528101906200004b91906200035a565b336000806101000a81548173ffffffffffffffffffffffffffffffffffffffff021916908373ffffffffffffffffffffffffffffffffffffffff1602179055508260019080519060200190620000a39291906200010d565b508160029080519060200190620000bc9291906200010d565b508060039080519060200190620000d59291906200010d565b506000600a60006101000a81548160ff02191690836002811115620000ff57620000fe62000413565b5b0217905550505050620004a7565b8280546200011b9062000471565b90600052602060002090601f0160209004810192826200013f57600085556200018b565b82601f106200015a57805160ff19168380011785556200018b565b828001600101855582156200018b579182015b828111156200018a5782518255916020019190600101906200016d565b5b5090506200019a91906200019e565b5090565b5b80821115620001b95760008160009055506001016200019f565b5090565b6000604051905090565b600080fd5b600080fd5b600080fd5b600080fd5b6000601f19601f8301169050919050565b7f4e487b7100000000000000000000000000000000000000000000000000000000600052604160045260246000fd5b6200022682620001db565b810181811067ffffffffffffffff82111715620002485762000247620001ec565b5b80604052505050565b60006200025d620001bd565b90506200026b82826200021b565b919050565b600067ffffffffffffffff8211156200028e576200028d620001ec565b5b6200029982620001db565b9050602081019050919050565b60005b83811015620002c6578082015181840152602081019050620002a9565b83811115620002d6576000848401525b50505050565b6000620002f3620002ed8462000270565b62000251565b905082815260208101848484011115620003125762000311620001d6565b5b6200031f848285620002a6565b509392505050565b600082601f8301126200033f576200033e620001d1565b5b815162000351848260208601620002dc565b91505092915050565b600080600060608486031215620003765762000375620001c7565b5b600084015167ffffffffffffffff811115620003975762000396620001cc565b5b620003a58682870162000327565b935050602084015167ffffffffffffffff811115620003c957620003c8620001cc565b5b620003d78682870162000327565b925050604084015167ffffffffffffffff811115620003fb57620003fa620001cc565b5b620004098682870162000327565b9150509250925092565b7f4e487b7100000000000000000000000000000000000000000000000000000000600052602160045260246000fd5b7f4e487b7100000000000000000000000000000000000000000000000000000000600052602260045260246000fd5b600060028204905060018216806200048a57607f821691505b60208210811415620004a157620004a062000442565b5b50919050565b61110580620004b76000396000f3fe608060405234801561001057600080fd5b50600436106100cf5760003560e01c806387caea781161008c578063ce3c249111610066578063ce3c2491146101df578063d9e95a98146101fd578063ec0276f614610219578063f3a8286f14610237576100cf565b806387caea7814610187578063b9223946146101b7578063c19d93fb146101c1576100cf565b8063063b9620146100d45780630d15fd77146100f25780634763d4e7146101105780634c0a6af0146101415780636332abc91461014b578063753ec10314610169575b600080fd5b6100dc610255565b6040516100e99190610be8565b60405180910390f35b6100fa6102e3565b6040516101079190610c23565b60405180910390f35b61012a60048036038101906101259190610cb0565b6102e9565b604051610138929190610cf8565b60405180910390f35b6101496103a2565b005b610153610469565b6040516101609190610c23565b60405180910390f35b61017161046f565b60405161017e9190610be8565b60405180910390f35b6101a1600480360381019061019c9190610d54565b6104fd565b6040516101ae9190610d81565b60405180910390f35b6101bf610768565b005b6101c9610838565b6040516101d69190610e13565b60405180910390f35b6101e761084b565b6040516101f49190610e3d565b60405180910390f35b61021760048036038101906102129190610f8d565b61086f565b005b6102216109ca565b60405161022e9190610be8565b60405180910390f35b61023f610a58565b60405161024c9190610c23565b60405180910390f35b6003805461026290611018565b80601f016020809104026020016040519081016040528092919081815260200182805461028e90611018565b80156102db5780601f106102b0576101008083540402835291602001916102db565b820191906000526020600020905b8154815290600101906020018083116102be57829003601f168201915b505050505081565b60075481565b600960205280600052604060002060009150905080600001805461030c90611018565b80601f016020809104026020016040519081016040528092919081815260200182805461033890611018565b80156103855780601f1061035a57610100808354040283529160200191610385565b820191906000526020600020905b81548152906001019060200180831161036857829003601f168201915b5050505050908060010160009054906101000a900460ff16905082565b60008060028111156103b7576103b6610d9c565b5b600a60009054906101000a900460ff1660028111156103d9576103d8610d9c565b5b146103e357600080fd5b60008054906101000a900473ffffffffffffffffffffffffffffffffffffffff1673ffffffffffffffffffffffffffffffffffffffff163373ffffffffffffffffffffffffffffffffffffffff161461043b57600080fd5b6001600a60006101000a81548160ff0219169083600281111561046157610460610d9c565b5b021790555050565b60065481565b6002805461047c90611018565b80601f01602080910402602001604051908101604052809291908181526020018280546104a890611018565b80156104f55780601f106104ca576101008083540402835291602001916104f5565b820191906000526020600020905b8154815290600101906020018083116104d857829003601f168201915b505050505081565b6000600180600281111561051457610513610d9c565b5b600a60009054906101000a900460ff16600281111561053657610535610d9c565b5b1461054057600080fd5b600080600960003373ffffffffffffffffffffffffffffffffffffffff1673ffffffffffffffffffffffffffffffffffffffff168152602001908152602001600020600001805461059090611018565b9050141580156105ed5750600960003373ffffffffffffffffffffffffffffffffffffffff1673ffffffffffffffffffffffffffffffffffffffff16815260200190815260200160002060010160009054906101000a900460ff16155b1561075e576001600960003373ffffffffffffffffffffffffffffffffffffffff1673ffffffffffffffffffffffffffffffffffffffff16815260200190815260200160002060010160006101000a81548160ff021916908315150217905550610655610a5e565b33816000019073ffffffffffffffffffffffffffffffffffffffff16908173ffffffffffffffffffffffffffffffffffffffff16815250508481602001901515908115158152505084156106be576001600460008282546106b69190611079565b925050819055505b8060086000600754815260200190815260200160002060008201518160000160006101000a81548173ffffffffffffffffffffffffffffffffffffffff021916908373ffffffffffffffffffffffffffffffffffffffff16021790555060208201518160000160146101000a81548160ff0219169083151502179055509050506001600760008282546107519190611079565b9250508190555060019150505b8092505050919050565b600180600281111561077d5761077c610d9c565b5b600a60009054906101000a900460ff16600281111561079f5761079e610d9c565b5b146107a957600080fd5b60008054906101000a900473ffffffffffffffffffffffffffffffffffffffff1673ffffffffffffffffffffffffffffffffffffffff163373ffffffffffffffffffffffffffffffffffffffff161461080157600080fd5b6002600a60006101000a81548160ff0219169083600281111561082757610826610d9c565b5b021790555060045460058190555050565b600a60009054906101000a900460ff1681565b60008054906101000a900473ffffffffffffffffffffffffffffffffffffffff1681565b600080600281111561088457610883610d9c565b5b600a60009054906101000a900460ff1660028111156108a6576108a5610d9c565b5b146108b057600080fd5b60008054906101000a900473ffffffffffffffffffffffffffffffffffffffff1673ffffffffffffffffffffffffffffffffffffffff163373ffffffffffffffffffffffffffffffffffffffff161461090857600080fd5b610910610a90565b828160000181905250600081602001901515908115158152505080600960008673ffffffffffffffffffffffffffffffffffffffff1673ffffffffffffffffffffffffffffffffffffffff1681526020019081526020016000206000820151816000019080519060200190610986929190610aac565b5060208201518160010160006101000a81548160ff0219169083151502179055509050506001600660008282546109bd9190611079565b9250508190555050505050565b600180546109d790611018565b80601f0160208091040260200160405190810160405280929190818152602001828054610a0390611018565b8015610a505780601f10610a2557610100808354040283529160200191610a50565b820191906000526020600020905b815481529060010190602001808311610a3357829003601f168201915b505050505081565b60055481565b6040518060400160405280600073ffffffffffffffffffffffffffffffffffffffff1681526020016000151581525090565b6040518060400160405280606081526020016000151581525090565b828054610ab890611018565b90600052602060002090601f016020900481019282610ada5760008555610b21565b82601f10610af357805160ff1916838001178555610b21565b82800160010185558215610b21579182015b82811115610b20578251825591602001919060010190610b05565b5b509050610b2e9190610b32565b5090565b5b80821115610b4b576000816000905550600101610b33565b5090565b600081519050919050565b600082825260208201905092915050565b60005b83811015610b89578082015181840152602081019050610b6e565b83811115610b98576000848401525b50505050565b6000601f19601f8301169050919050565b6000610bba82610b4f565b610bc48185610b5a565b9350610bd4818560208601610b6b565b610bdd81610b9e565b840191505092915050565b60006020820190508181036000830152610c028184610baf565b905092915050565b6000819050919050565b610c1d81610c0a565b82525050565b6000602082019050610c386000830184610c14565b92915050565b6000604051905090565b600080fd5b600080fd5b600073ffffffffffffffffffffffffffffffffffffffff82169050919050565b6000610c7d82610c52565b9050919050565b610c8d81610c72565b8114610c9857600080fd5b50565b600081359050610caa81610c84565b92915050565b600060208284031215610cc657610cc5610c48565b5b6000610cd484828501610c9b565b91505092915050565b60008115159050919050565b610cf281610cdd565b82525050565b60006040820190508181036000830152610d128185610baf565b9050610d216020830184610ce9565b9392505050565b610d3181610cdd565b8114610d3c57600080fd5b50565b600081359050610d4e81610d28565b92915050565b600060208284031215610d6a57610d69610c48565b5b6000610d7884828501610d3f565b91505092915050565b6000602082019050610d966000830184610ce9565b92915050565b7f4e487b7100000000000000000000000000000000000000000000000000000000600052602160045260246000fd5b60038110610ddc57610ddb610d9c565b5b50565b6000819050610ded82610dcb565b919050565b6000610dfd82610ddf565b9050919050565b610e0d81610df2565b82525050565b6000602082019050610e286000830184610e04565b92915050565b610e3781610c72565b82525050565b6000602082019050610e526000830184610e2e565b92915050565b600080fd5b600080fd5b7f4e487b7100000000000000000000000000000000000000000000000000000000600052604160045260246000fd5b610e9a82610b9e565b810181811067ffffffffffffffff82111715610eb957610eb8610e62565b5b80604052505050565b6000610ecc610c3e565b9050610ed88282610e91565b919050565b600067ffffffffffffffff821115610ef857610ef7610e62565b5b610f0182610b9e565b9050602081019050919050565b82818337600083830152505050565b6000610f30610f2b84610edd565b610ec2565b905082815260208101848484011115610f4c57610f4b610e5d565b5b610f57848285610f0e565b509392505050565b600082601f830112610f7457610f73610e58565b5b8135610f84848260208601610f1d565b91505092915050565b60008060408385031215610fa457610fa3610c48565b5b6000610fb285828601610c9b565b925050602083013567ffffffffffffffff811115610fd357610fd2610c4d565b5b610fdf85828601610f5f565b9150509250929050565b7f4e487b7100000000000000000000000000000000000000000000000000000000600052602260045260246000fd5b6000600282049050600182168061103057607f821691505b6020821081141561104457611043610fe9565b5b50919050565b7f4e487b7100000000000000000000000000000000000000000000000000000000600052601160045260246000fd5b600061108482610c0a565b915061108f83610c0a565b9250827fffffffffffffffffffffffffffffffffffffffffffffffffffffffffffffffff038211156110c4576110c361104a565b5b82820190509291505056fea26469706673582212207b90f04fe8e05be1c92cc7f0c79527de47ab1e00b06e903a472715646723fcfa64736f6c634300080b0033",
  "immutableReferences": {},
  "source": "// SPDX-License-Identifier: MIT\npragma solidity >=0.4.22 <0.9.0;\n\n\n/** @title Ballot_Authorized\n *  @notice Contract for voting on the chain over authorized, by official contract creator, addresses. Use-Case for non-open polls such as in a parliament.\n */\ncontract Ballot_Authorized{\n    struct vote{\n        address voterAddress;\n        bool choice;\n    }\n\n    struct voter {\n        string voterName;\n        bool voted;\n    }\n\n    address public officialBallotAddress;\n    string public officialBallotName;\n    string public proposal;\n    string public metainfo;\n\n    uint private countResult = 0;\n    uint public finalResult = 0;\n    uint public totalVoter = 0;\n    uint public totalVotes = 0;\n\n    mapping(uint => vote) private votes;\n    mapping(address => voter) public voterRegistry;\n\n    enum State { Created, Voting, Ended }\n    State public state;\n\n    /// @param _condition Any condition accepted; Development purposes only\n    modifier condition(bool _condition){\n        require(_condition);\n        _;\n    }\n\n    /// @dev Requirement for official Address\n    modifier onlyOfficial(){\n        require(msg.sender == officialBallotAddress);\n        _;\n    }\n\n    /// @param _state Depending on Created, Voting, Ended state of Contract\n    modifier inState(State _state){\n        require(state == _state);\n        _;\n    }\n\n    /// @notice Constructor for Contract\n    constructor(string memory _officialBallotName, string memory _proposal, string memory _metainfo){\n        officialBallotAddress = msg.sender;\n        officialBallotName = _officialBallotName;\n        proposal = _proposal;\n        metainfo = _metainfo;\n        state = State.Created;\n    }\n\n    /// @notice Adds address to authorized votees. Required to vote.\n    function addVoter(address _voterAddress, string memory _voterName) public inState(State.Created) onlyOfficial{\n        voter memory v;\n        v.voterName = _voterName;\n        v.voted = false;\n        voterRegistry[_voterAddress] = v;\n        totalVoter+=1; \n    }\n\n    /// @notice Start voting process\n    function startVote() public inState(State.Created) onlyOfficial {\n        state = State.Voting;\n    }\n\n    /// @notice Adds vote to the poll for current address\n    function doVote(bool _choice) public inState(State.Voting) returns (bool voted){\n        bool found = false;\n\n        if(bytes(voterRegistry[msg.sender].voterName).length != 0 && !voterRegistry[msg.sender].voted){\n            voterRegistry[msg.sender].voted = true;\n            vote memory v; \n            v.voterAddress = msg.sender;\n            v.choice = _choice;     \n            if(_choice){\n                countResult+=1;\n            }      \n            votes[totalVotes] = v;\n            totalVotes+=1;\n            found = true;\n        }\n        return found;\n    }\n\n    /// @notice Terminates voting process. Aggregates results. \n    function endVote() public inState(State.Voting) onlyOfficial {\n        state = State.Ended;\n        finalResult = countResult;\n    }\n}",
  "sourcePath": "/home/thompson/Projects/Solidity/DeVoS/web3/contracts/Ballot_Authorized.sol",
  "compiler": {
    "name": "solc",
    "version": "0.8.11+commit.d7f03943.Emscripten.clang"
  },
  "schemaVersion": "3.4.5",
  "updatedAt": "2022-03-01T16:36:56.478Z",
  "devdoc": {
    "kind": "dev",
    "methods": {},
    "title": "Ballot_Authorized",
    "version": 1
  },
  "userdoc": {
    "kind": "user",
    "methods": {
      "addVoter(address,string)": {
        "notice": "Adds address to authorized votees. Required to vote."
      },
      "constructor": {
        "notice": "Constructor for Contract"
      },
      "doVote(bool)": {
        "notice": "Adds vote to the poll for current address"
      },
      "endVote()": {
        "notice": "Terminates voting process. Aggregates results. "
      },
      "startVote()": {
        "notice": "Start voting process"
      }
    },
    "notice": "Contract for voting on the chain over authorized, by official contract creator, addresses. Use-Case for non-open polls such as in a parliament.",
    "version": 1
  }
}